{
  "contractName": "CertificateContract",
  "abi": [
    {
      "anonymous": false,
      "inputs": [
        {
          "indexed": true,
          "internalType": "bytes32",
          "name": "certificateHash",
          "type": "bytes32"
        }
      ],
      "name": "CertificateAdded",
      "type": "event"
    },
    {
      "anonymous": false,
      "inputs": [
        {
          "indexed": true,
          "internalType": "bytes32",
          "name": "certificateHash",
          "type": "bytes32"
        },
        {
          "indexed": false,
          "internalType": "bool",
          "name": "isValid",
          "type": "bool"
        }
      ],
      "name": "CertificateVerified",
      "type": "event"
    },
    {
      "inputs": [
        {
          "internalType": "bytes32",
          "name": "",
          "type": "bytes32"
        }
      ],
      "name": "certificates",
      "outputs": [
        {
          "internalType": "bool",
          "name": "",
          "type": "bool"
        }
      ],
      "stateMutability": "view",
      "type": "function",
      "constant": true
    },
    {
      "inputs": [
        {
          "internalType": "bytes32",
          "name": "certificateHash",
          "type": "bytes32"
        }
      ],
      "name": "addCertificate",
      "outputs": [],
      "stateMutability": "nonpayable",
      "type": "function"
    },
    {
      "inputs": [
        {
          "internalType": "bytes32",
          "name": "certificateHash",
          "type": "bytes32"
        }
      ],
      "name": "verifyCertificate",
      "outputs": [
        {
          "internalType": "bool",
          "name": "",
          "type": "bool"
        }
      ],
      "stateMutability": "nonpayable",
      "type": "function"
    }
  ],
  "bytecode": "0x608060405234801561001057600080fd5b5061026e806100206000396000f3fe608060405234801561001057600080fd5b50600436106100415760003560e01c8063742f068814610046578063750f9f8714610076578063850c176814610092575b600080fd5b610060600480360381019061005b91906101b8565b6100c2565b60405161006d91906101f0565b60405180910390f35b610090600480360381019061008b91906101b8565b6100e2565b005b6100ac60048036038101906100a791906101b8565b61013d565b6040516100b991906101f0565b60405180910390f35b60006020528060005260406000206000915054906101000a900460ff1681565b600160008083815260200190815260200160002060006101000a81548160ff021916908315150217905550807f17bb7cfdc69e5f19d4aa0509b6efed06df2c55008e56a1aa33322eb96855cf9a60405160405180910390a250565b60008060008084815260200190815260200160002060009054906101000a900460ff169050827ff90e61a4c773bad66132c1a585d03b6928d79554859ca2957702a47f031863bc8260405161019291906101f0565b60405180910390a280915050919050565b6000813590506101b281610221565b92915050565b6000602082840312156101ca57600080fd5b60006101d8848285016101a3565b91505092915050565b6101ea8161020b565b82525050565b600060208201905061020560008301846101e1565b92915050565b60008115159050919050565b6000819050919050565b61022a81610217565b811461023557600080fd5b5056fea2646970667358221220d125ed8ff89df1dee06c35a5d63e293fc2ae1ed563d2f67fb6e9412c60aef9fe64736f6c63430008000033",
  "immutableReferences": {},
  "source": "// SPDX-License-Identifier: MIT\npragma solidity ^0.8.0;\n\ncontract CertificateContract {\n    mapping(bytes32 => bool) public certificates;\n    \n    event CertificateAdded(bytes32 indexed certificateHash);\n    event CertificateVerified(bytes32 indexed certificateHash, bool isValid);\n    \n    function addCertificate(bytes32 certificateHash) public {\n        certificates[certificateHash] = true;\n        emit CertificateAdded(certificateHash);\n    }\n    \n    function verifyCertificate(bytes32 certificateHash) public returns (bool) {\n        bool isValid = certificates[certificateHash];\n        emit CertificateVerified(certificateHash, isValid);\n        return isValid;\n    }\n}\n",
  "sourcePath": "/Users/mohammedjarirkhan/Desktop/Jarir/certiGenerator/certigenerator/contracts/CertificateContract.sol",
  "compiler": {
    "name": "solc",
    "version": "0.8.0+commit.c7dfd78e.Emscripten.clang"
  },
  "schemaVersion": "3.4.16",
  "updatedAt": "2025-02-10T16:49:00.713Z",
  "networkType": "ethereum",
  "devdoc": {
    "kind": "dev",
    "methods": {},
    "version": 1
  },
  "userdoc": {
    "kind": "user",
    "methods": {},
    "version": 1
  }
}