{
  "contractName": "CertificateContract",
  "abi": [
    {
      "anonymous": false,
      "inputs": [
        {
          "indexed": true,
          "internalType": "bytes32",
          "name": "certificateHash",
          "type": "bytes32"
        }
      ],
      "name": "CertificateAdded",
      "type": "event"
    },
    {
      "anonymous": false,
      "inputs": [
        {
          "indexed": true,
          "internalType": "bytes32",
          "name": "certificateHash",
          "type": "bytes32"
        },
        {
          "indexed": false,
          "internalType": "bool",
          "name": "isValid",
          "type": "bool"
        }
      ],
      "name": "CertificateVerified",
      "type": "event"
    },
    {
      "inputs": [
        {
          "internalType": "bytes32",
          "name": "certificateHash",
          "type": "bytes32"
        }
      ],
      "name": "addCertificate",
      "outputs": [],
      "stateMutability": "nonpayable",
      "type": "function"
    },
    {
      "inputs": [
        {
          "internalType": "bytes32",
          "name": "certificateHash",
          "type": "bytes32"
        }
      ],
      "name": "verifyCertificate",
      "outputs": [
        {
          "internalType": "bool",
          "name": "",
          "type": "bool"
        }
      ],
      "stateMutability": "nonpayable",
      "type": "function"
    }
  ],
  "bytecode": "0x608060405234801561001057600080fd5b506102ca806100206000396000f3fe608060405234801561001057600080fd5b50600436106100365760003560e01c8063750f9f871461003b578063850c176814610057575b600080fd5b610055600480360381019061005091906101a3565b610087565b005b610071600480360381019061006c91906101a3565b610128565b60405161007e919061021b565b60405180910390f35b6000801b8114156100cd576040517f08c379a00000000000000000000000000000000000000000000000000000000081526004016100c490610236565b60405180910390fd5b600160008083815260200190815260200160002060006101000a81548160ff021916908315150217905550807f17bb7cfdc69e5f19d4aa0509b6efed06df2c55008e56a1aa33322eb96855cf9a60405160405180910390a250565b60008060008084815260200190815260200160002060009054906101000a900460ff169050827ff90e61a4c773bad66132c1a585d03b6928d79554859ca2957702a47f031863bc8260405161017d919061021b565b60405180910390a280915050919050565b60008135905061019d8161027d565b92915050565b6000602082840312156101b557600080fd5b60006101c38482850161018e565b91505092915050565b6101d581610267565b82525050565b60006101e8601883610256565b91507f496e76616c6964206365727469666963617465206861736800000000000000006000830152602082019050919050565b600060208201905061023060008301846101cc565b92915050565b6000602082019050818103600083015261024f816101db565b9050919050565b600082825260208201905092915050565b60008115159050919050565b6000819050919050565b61028681610273565b811461029157600080fd5b5056fea2646970667358221220dfe3abc251f5d1d9d6b17684630bde6e504298935d9b13a869f81d9ed0976c4c64736f6c63430008000033",
  "immutableReferences": {},
  "source": "// SPDX-License-Identifier: MIT\npragma solidity ^0.8.0;\n\ncontract CertificateContract {\n    mapping(bytes32 => bool) private certificates;\n    \n    event CertificateAdded(bytes32 indexed certificateHash);\n    event CertificateVerified(bytes32 indexed certificateHash, bool isValid);\n\n    function addCertificate(bytes32 certificateHash) public {\n        require(certificateHash != 0, \"Invalid certificate hash\");\n        certificates[certificateHash] = true;\n        emit CertificateAdded(certificateHash);\n    }\n\n    function verifyCertificate(bytes32 certificateHash) public returns (bool) {\n        bool isValid = certificates[certificateHash];\n        emit CertificateVerified(certificateHash, isValid);\n        return isValid;\n    }\n}",
  "sourcePath": "/Users/mohammedjarirkhan/Desktop/Jarir/certiGenerator/contracts/CertificateContract.sol",
  "compiler": {
    "name": "solc",
    "version": "0.8.0+commit.c7dfd78e.Emscripten.clang"
  },
  "schemaVersion": "3.4.16",
  "updatedAt": "2025-02-10T12:51:55.251Z",
  "networkType": "ethereum",
  "devdoc": {
    "kind": "dev",
    "methods": {},
    "version": 1
  },
  "userdoc": {
    "kind": "user",
    "methods": {},
    "version": 1
  }
}